:1000000000400120B19F010039FB021039FB0210B2
:1000100039FB021039FB021039FB021039FB0210C8
:1000200039FB021039FB021039FB021039FB0210B8
:0C00300039FB021039FB021011FB02101A
:1010000001000000000000000000000000000000DF
:10101000FFFFFFFF942300200400000000000000F9
:101020000000000014000000043000001800000060
:10103000682E0000C0100000002300200400000003
:10104000000000000000000024000000F02E00005E
:10105000180000009DD3000008000000B01100003F
:1010600074100000C1C8021001BB021091EB021005
:10107000DDE5021081E00210B9E5021071E5021011
:101080002E00000001000000010000001C300000E4
:1010900000000000FFFFFFFF6C23002004000000A1
:1010A000000000000000000028000000DC2F00000D
:1010B00024000000210000001800000000000000D3
:1010C00028130000D41000009BEC021025E202104F
:1010D00005EB021025DE0210FDE10210E1E4021032
:1010E000330000003400000025002900000000004B
:1010F000E0220020FFFFFFFFB423002004000000D7
:1011000000000000000000003800000090300000E7
:101110002800000001000000100000000000000096
:1011200000000000F7F1021000001900100000009C
:1011300004000000F4300000F2BA000008000000D3
:101140003600000074230020BC230020090020008A
:10115000D3750000082300200100000000001100EA
:10116000FFFFFFFFA4230020040000000000000098
:1011700000000000100000005430000018000000C3
:101180000000000000001200FFFFFFFF1C240020F1
:1011900004000000000000000000000054000000F7
:1011A000B83000003C0000000000010031000000E9
:1011B000041000006B9700002D00000000000000EC
:1011C000B0110000D811000059D20210D9DB021072
:1011D00059EC0210CDD6021085DE02104DE502104A
:1011E00029E502102D00000000001500000000009D
:1011F00000000000FF7F000024240020FFFFFFFF0D
:101200009C230020040000000000000000000000FB
:1012100058000000203000003400000039FB0210AC
:101220000100330006000000000000002000000064
:10123000010000001BF80210280000002813000025
:101240005012000093EC02106DEB02104DEC0210F6
:1012500029E00210BDE4021099E402103100000000
:1012600000000000482300200400000000000000EF
:101270000000000010000000082F00002C000000FB
:10128000000000000000030000000E003C00000011
:1012900000000000000000002FF902101000000004
:1012A0000800000004310000FFFFFFFFAC23002016
:1012B0000400000000000000000000001C0000000E
:1012C0006C300000240000003C120000F8220020D6
:1012D0000400000000000000000000000C000000FE
:1012E000782E000018000000F797000000000000B2
:1012F00000000000080000000100000004000000E1
:10130000000000000000130000000000483500004D
:101310000000180000001700240000008FA001004A
:1013200000400000000200000410000000000F0058
:1013300055F002100C000000D3D3000000000000A4
:10134000D82200200400000000000000000000007F
:1013500020000000382E0000300000006035000042
:10136000010000008DD400000B860000000000008A
:1013700000001600000200002E0000000000220005
:101380000000140001000000C011000064230020D0
:101390000400000000000000000000002000000029
:1013A000B82F0000240000007835000058230020EA
:0813B0002000000018310000CC
:1013C00015D3000023D5000027D500002BD5000041
:1013D0002FD5000033D5000037D50000D1580100CB
:1013E000815901008D5801002BA001000DA00100C2
:1013F00059590100655901005DA00100B55901006E
:10140000615A0100755A01002DE9F84C2DED0A8B47
:1014100082B041EC180B149C43EC192B0CB100204A
:10142000206051EC190B20F0000621F0004700204D
:10143000874208BF864213D053EC182BDFF82816DA
:1014400000F076FD0CD0DFF81C1600F071FD0BD11A
:1014500051EC190B48004015401C05D1090303D17C
:1014600002B0DFF80416F9E251EC180B4800401501
:10147000401C0FD051EC180B21F00041002291428A
:1014800008BF904206D051EC190B48004015401C93
:1014900040F0F78051EC180B48004015401C05D176
:1014A000090318BF51EC180B40F0D68251EC190B10
:1014B00048004015401C05D1090318BF51EC190B19
:1014C00040F0CA8251EC190B480001244015401C21
:1014D00062D051EC190B4B0043EAD0734200002656
:1014E000B34208BFB24204D1B0EE49AAF0EE69AAF5
:1014F00019E040F23345A5EB5352352A04DB00F0E6
:10150000000001F000410CE0202A03DD203AD14028
:10151000914000E001D1002003E0002AC4BFD04088
:10152000904041EC1A0B53EC192B51EC1A0B00F0C4
:10153000FFFC18BF00244B0043EAD0734200B342C3
:1015400008BFB24204D1B0EE4A0AF0EE6A0A19E0CE
:1015500040F23445A5EB5352352A04DB00F000007D
:1015600001F000410CE0202A03DD203AD1409140F7
:1015700000E001D1002003E0002AC4BFD040904029
:1015800041EC100B44B153EC1A2B51EC100B00F052
:10159000CFFC0CBF0024012451EC180B480040156F
:1015A000401C0ED109030CD151EC180BC80F25D1EA
:1015B00053EC192BDA0F0CBF9FED8D0B9FED8E0BAB
:1015C00048E251EC190B48004015401C28D1090392
:1015D00026D153EC182B23F00041B1F5801F22F0E7
:1015E00000002ED20023994208BF984200932DD0CC
:1015F0006A4651EC180B00F0ABFC27E051EC190BDC
:10160000C80F06D1002C0CBF9FED790B9FED7C0B12
:1016100020E2002C0CBF9FED780B9FED7B0B19E2B5
:10162000002C1ABF51EC180BC80F002053EC192BDB
:10163000DA0F1FD100280CBF9FED6F0B9FED720BCF
:1016400008E2DFF8284404EB1150009051EC190B2C
:10165000C80F07D100990029CCBF9FED650B9FED06
:10166000660BF7E100980028CCBF9FED630B9FED60
:10167000600BEFE100280CBF9FED5D0B9FED600B51
:10168000E8E151EC190B4B0043EAD073420000260D
:101690000027BB4208BFB24204D1B0EE49AAF0EE27
:1016A00069AA19E040F23345A5EB5352352A04DB11
:1016B00000F0000001F000410CE0202A03DD203A98
:1016C000D140914000E001D1002003E0002AC4BFD6
:1016D000D040904041EC1A0B51EC180BC80F11D0C0
:1016E00053EC192B51EC1A0B00F022FC0AD0AFF38B
:1016F000008002B04FF0FF30BDEC0A8B6FF000416C
:10170000BDE8F48C53EC182B23F00041B1F5801F99
:1017100022F000000AD2B94208BFB042009611D0B0
:101720006A4651EC180B00F013FC09E0CF4E06EBB3
:1017300011500090DFF8A013CD4803401046194324
:1017400041EC180B51EC180BC80F08BF002638D01D
:1017500021F0004053EC182B034643EC182B51ECBE
:101760001A0B4B0043EAD07342000026BB4208BF6D
:10177000B24204D1B0EE4A0AF0EE6A0A19E040F231
:101780003445A5EB5352352A04DB00F0000001F08C
:1017900000410CE0202A03DD203AD140914000E0D6
:1017A00001D1002003E0002AC4BFD040904041ECAA
:1017B000100B53EC1A2B51EC100B00F0B9FB18BFB7
:1017C00001260098012823D151EC180BA94AAA4BF5
:1017D00000F0F6FB1CD253EC182B00204FF0804198
:1017E00000F006FC00259FEDC3BB41EC180B2DE07B
:1017F000000000000000F07F00000000000000007A
:10180000000000000000F0FF000000000000008069
:1018100053EC182B0020994900F0EAFB9FED98ABA0
:1018200053EC1A2B00F0B6FC00F070FDA0F120057F
:10183000284600F089FD0022934B00F0D9FB53ECC1
:101840001A2B00F0A7FC41EC1B0B6D0151EC180B9F
:1018500053EC1B2B00F08AFD41EC1A0B53EC182BB8
:1018600051EC1B0B00F096FC02460B4651EC1A0B98
:1018700000F0EEFD41EC180B53EC182B00F0B8FB18
:1018800041EC1C0B53EC1C2B8048814900F0B0FB51
:10189000804A814B00F07EFC53EC1C2B00F0A8FB2F
:1018A0007E4A7F4B00F076FC53EC1C2B00F0A0FB33
:1018B0007C4A7D4B00F06EFC53EC1C2B00F098FB37
:1018C0007A4A7B4B00F066FC53EC1C2B00F090FB3B
:1018D000784A794B00F05EFC53EC1C2B00F088FB3F
:1018E000764A774B00F056FC53EC1C2B00F080FB43
:1018F00053EC1A2B00F03AFD82468B4600205A49E1
:1019000053EC1B2B00F032FD00224FF0804300F01F
:101910006FFB52465B4600F03DFC53EC182B00F089
:1019200067FB41EC100B0FF2E810471953EC1A2B30
:1019300051EC100B00F02EFC41EC180B009800F05D
:1019400003FDD7E9002300F025FC41EC1A0B53EC12
:10195000182B5C485C4900F04BFB53EC1A2B00F051
:1019600019FC53EC192B00F043FB0022574B00F0FD
:1019700027FB41EC1B0B6AD30122554B00F08CFE78
:101980005BD9C80F53EC1B2B1ABF00205149524999
:1019900000F000FC00F0BAFC054653EC182B51ECAB
:1019A000190B00F025FB82468B46D7E90201D7E9E7
:1019B000042300F0EFFB53EC192B00F019FB9FED13
:1019C00047BB53EC1B2B00F013FB52465B4600F069
:1019D000E1FBCDE9000153EC1A2B51EC190B00F09F
:1019E00007FB07468B46284600F0AEFC02460B4636
:1019F0003846594600F0BAFC53EC1B2B00F0F8FABD
:101A0000DDE9002300F0C6FB0CB125600025009540
:101A10000022154B00F058FE41EC100B20F00002A4
:101A200021F000430020834208BF82420FD04800CB
:101A30004015401C03D1090301D19FED2A0B4EB183
:101A400051EC100B81F0004141EC100B02E09FEDD6
:101A5000270BF4E751EC100B0DF1080DBDEC0A8BD0
:101A6000BDE8F48C0000F0BF0000F03F02FCFFFF77
:101A7000FFFF0F80CD3B7F669EA0E63F00005040F9
:101A8000000000000000E03F0000903FF7DE29BFAB
:101A9000D8F8C23FF4B3FECC1A99C33F62CB68D9E1
:101AA0006F46C73FC6C912DAC471CC3F4AE98A946F
:101AB0002449D23FF75F97999999D93FBC5555551D
:101AC0005555E53FFE822B654715F73F0000E0C006
:101AD0000000E0400000E0BF0000E03FEF39FAFE08
:101AE000422EE63F000000000000F07F00000000F2
:101AF00000000000000000000000F03F80B541EC55
:101B0000100B0020009051EC100BFFF77DFC04BD82
:101B1000000000000000F0BF000000000000008096
:101B20000000000000000080000000000000000035
:101B3000000000C05294EEBF00000048204E51BE8D
:101B4000000000F86467BCBC00000000000000005A
:101B5000000000208133EDBF00000080B3DB14BE25
:101B6000000000506706A3BC000000000000000059
:101B7000000000D0E9DCEBBF00000008C39259BEB2
:101B800000000080B0D3B8BC0000000000000000DE
:101B900000000070F98FEABF000000C0A51028BE49
:101BA000000000E8BFC0B0BC000000000000000062
:101BB00000000070284CE9BF00000060134B42BEDB
:101BC000000000C03D20B8BC000000000000000084
:101BD00000000050FA10E8BF000000C05FF62BBE06
:101BE000000000905C71A7BC000000000000000035
:101BF00000000020FCDDE6BF000000C0F8F154BE8C
:101C000000000018E9F6B9BC000000000000000068
:101C1000000000D0C3B2E5BF00000070E43254BE43
:101C200000000050DB06B4BC000000000000000013
:101C300000000010EF8EE4BF00000020F36252BEEF
:101C4000000000C02A879ABC0000000000000000CD
:101C5000000000B02272E3BF000000F0E8E056BED2
:101C600000000028352DBDBC000000000000000071
:101C7000000000000A5CE2BF000000B0FA8E41BE26
:101C800000000040AE6FBDBC00000000000000007E
:101C900000000000564CE1BF000000F015CD5FBE13
:101CA00000000000141C90BC0000000000000000B8
:101CB00000000040BD42E0BF00000030F93457BED4
:101CC000000000E06C1E93BC00000000000000005B
:101CD000000000E0F57DDEBF000000B08A535EBE6C
:101CE00000000080DA77AABC0000000000000000BD
:101CF000000000C09D81DCBF00000000FFA226BEE6
:101D00000000006057E2B0BC0000000000000000CE
:101D100000000060F98FDABF000000580A8151BE50
:101D2000000000F05F60B8BC000000000000000090
:101D30000000000098A8D8BF000000607A7F45BE70
:101D4000000000D05433A3BC0000000000000000DD
:101D5000000000600FCBD6BF000000D091CB40BE8A
:101D6000000000406D1BA0BC00000000000000004F
:101D7000000000A0FBF6D4BF00000098C5CE52BE04
:101D8000000000003A397EBC0000000000000000A6
:101D9000000000E0FE2BD3BF0000004073872BBE85
:101DA00000000000926879BC000000000000000004
:101DB00000000040C069D1BF00000058F16353BE6D
:101DC00000000080438D7CBC00000000000000008B
:101DD00000000080D85FCFBF000000181F8354BEF2
:101DE000000000B03F42A2BC000000000000000064
:101DF0000000008067FCCBBF00000060FAFF53BE0C
:101E000000000050E00DB8BC000000000000000021
:101E10000000000098A8C8BF000000607A7F35BEAF
:101E2000000000C0543393BC00000000000000001C
:101E300000000000DC63C5BF00000058D6FF54BEA0
:101E400000000000396490BC0000000000000000A9
:101E5000000000C0AD2DC2BF00000080A45915BE17
:101E6000000000E0484BABBC000000000000000098
:101E7000000000801A0BBEBF00000050BF3C5ABEDD
:101E8000000000A0B364B6BC000000000000000029
:101E90000000008004D6B7BF00000040BBCF36BEB4
:101EA0000000008076CEA8BC00000000000000000A
:101EB0000000008032BBB1BF000000402A0043BEDA
:101EC00000000028C60CBDBC00000000000000009F
:101ED000000000009473A7BF000000182B3B59BE00
:101EE000000000C0E55DA5BC00000000000000008F
:101EF00000000000EE4397BF000000A0E6C340BE14
:101F000000000020958DB5BC00000000000000001E
:101F100000000000000000800000000000000080C1
:101F20000000000000000080000000000000000031
:101F300090420CD141EA030C50EA4C0C07D0994274
:101F400005D14FF4001C1CEB410F38BF894270478C
:101F500010B5144600F002F8226010BDC1F30A5318
:101F600043B14A0012F5001F28D2A3F2FE32A1EBC2
:101F70000251704750EA410C20D001F0004C31EA88
:101F80000C01B1FA81F204BFB0FA80F3D2180B3A17
:101F9000B2F120032CBF00FA03F1914041EA0C0199
:101FA0003EBFC2F1200C20FA0CF31943904052427C
:101FB00040F2FD33D21A01EB035170470022704703
:101FC0004FF4001C1CEB410F94BF1CEB430F09E0C6
:101FD00041EA030C50EA4C0C52EA0C0C03D2994231
:101FE00008BF9042704714BF8B4282427047C92A93
:101FF000B0B581EA030C0CF0004C40F2FF7515EA15
:1020000011541DBF15EA1357AC42AF4239E0E41931
:1020100023EA455343F48013C90241F0004141EAE9
:10202000505EC7021100A7FB020200284FF000001B
:10203000EEFB01204FF00001E3FB072118BF42F047
:102040000102401800214941E3FB0E01A4F5806420
:102050000F0302D252004041494154F101046CDDAA
:10206000470872F1004250F1000051EB0451A1F514
:1020700080115CBF41EA0C01B0BD4CEA0551002063
:10208000B0BD05EA1357AC4214BFAF4241E050EA7D
:10209000410E1CBF52EA430E02E061460020B0BD73
:1020A00024423C441BD15FEA070EF6D0090302BF6D
:1020B00001460020AEF1140EB1FA81F7AEEB070431
:1020C00001FA07FE0C37C7F1200100FA07F7C840F4
:1020D0004EEA000E23EA455343F48013A2E733F09F
:1020E0000043B3FA83F704BFB2FA82FE77440B3F92
:1020F000E41BB7F1200E2FBF02FA0EF3BB40C7F16D
:10210000200E22FA0EFE38BF43EA0E03BA40641CCA
:1021100082E750EA410E14BF52EA430E6FF000010D
:102120004FF4001717EB430F8ABF194617EB410F07
:10213000B5E74CEA05510020B0BDD4F10104B4F17B
:1021400020070FDAC4F12007520828BF42F001022D
:1021500010FA07F501FA07F7E1BF2A43E0403843D8
:10216000E1400FE0352C98DCC7F1200452EA400230
:1021700020FA07F218BF42F0010231FA07F0A1403D
:102180000A43002172F1004250F1000051EB0C01B2
:10219000B0BD0A0570B44FF0004591EA030F40F15D
:1021A000ED806B40841A71EB030604D26E40001B75
:1021B000B141121973414FF4001C1CEB410F34BFA5
:1021C0007CEB430682E00C0DA4EB1356362E7BDC31
:1021D000012E45EAC32341DC43EA525312BFD20227
:1021E00092025B08240545EAC12141EA5051D2EB35
:1021F000C020994125D407D1B0FA80F610FA06F133
:1022000062D00020203608E0B1FA81F6B140C6F174
:10221000200220FA02F21143B0404FEAF474B4EB0A
:10222000465434F001064FEA74040AD8D6F5001675
:10223000760D04F00044F04061FA06F25040F1409F
:102240004840C00A40EA415021F0004128BF5FEAFF
:10225000500550F1000044EBD12135E0DB0A45EA9E
:10226000C121C90AB6F120050EDD42EA0242120C74
:10227000C5F1200603FA06F6EB4042EA06056D4278
:10228000984161F100010DE062FA06F5F240554017
:1022900063FA06FC82EA0C02F3405A406D42904118
:1022A00061EB030111F4801F05D1641E620502D0A9
:1022B0006D004041494121F48011430875F100430C
:1022C00050F1000041EB045170BC70471CEB410F12
:1022D00015D223F0004352EA43060BD04FEA4C0CD0
:1022E000BCEB410F04D80C0D661E342EB7DDEBE7B6
:1022F000801A994150EA410608BF0021E4E708BF6F
:102300001CEB430F28BF6FF00001DDE7C1F30A5358
:1023100040F2FE329B1A14DDD3F120034FEAE17242
:1023200008DDC90241EA505141F00040D840801810
:102330005040704703F2E13010B1D24382F00040C8
:102340007047002070470603C11768B14840401A23
:10235000B0FA80F29040D21CC907C2F5846241EA0B
:10236000025202EBD02140057047060370B44FF0D3
:10237000004591EA030F7FF515AF6B40841A71EBAE
:10238000030603D2001BB141121973414FF4001C24
:102390001CEB410F34BF7CEB430442E00C0DA4EB7B
:1023A0001356352E4FDC45EAC323DB0A45EAC1212B
:1023B000C912B6F120050DDD63FA05F6EB4086EA99
:1023C0000305124218BF45F00105C01851F1000184
:1023D0000CD213E062FA06F5F2405540F3415A4040
:1023E000B340F3405A408018594107D349085FEA87
:1023F00030005FEA350528BF45F0010501F5801181
:10240000420875F1004250F1000041EB04514E00CA
:1024100016F5001F70BC38BF70470020090D090574
:1024200070471CEB410F10D252EA43060BD0BCEBB5
:10243000410F05D80C0DAB43661E342EB6DD02E00D
:10244000AB438018594170BC704770BC70470402A0
:10245000F0B540F2FF7581EA030C0CF0004C15EA70
:1024600011541DBF15EA1357AC42AF42E5E0BC4121
:10247000C1F31301C3F31303801A994143F480138A
:1024800004D2641E4000494180185941C90241EA02
:102490005051B1FBF3F603FB1611A2FB0675D7EB07
:1024A000C020A94102D2761E80185941C90241EAD2
:1024B0005051B1FBF3FE03FB1E11A2FB0E75D7EBCF
:1024C000C020A94103D2AEF1010E80185941890202
:1024D00041EA9051760546EA8E2EB1FBF3F603FBF6
:1024E0001611A2FB0675D7EB8020A94102D2761EF9
:1024F00080185941C90241EA50514EEA060EB1FB1B
:10250000F3F603FB1611A2FB0675D7EBC020A94119
:1025100002D2761E80185941C90241EA5051B1FBDE
:10252000F3F703FB1711A2FB0735D3EBC020A9413A
:1025300067F100070CBF004247F0010766F3D5279B
:102540004FEA1E31B80814F5806412DDBD0775F13D
:10255000004250EB0E5051EB045111F5801F5CBF4F
:1025600041EA0C01F0BD4CF07F6141F0E0410020F8
:10257000F0BDBD076D0840EA0E5041F48011D4F162
:102580000104B4F120060ADAC4F120060200E0409A
:1025900001FA06F3E1401843B24015430EE0342C33
:1025A00013DCC6F1200445EA40056D0820FA06F266
:1025B000154321FA06F0A1400D43002175F10042B8
:1025C00050F1000051EB0C01F0BD00205FEA0C015E
:1025D000F0BDCFB992185B41B3FA83F704BFB2FAEA
:1025E00082F6BF190B3FB7F120062FBF02FA06F3A0
:1025F000BB40C7F1200622FA06F638BF3343BA4083
:102600001CB1E419641E33E77F4231F00041B1FA96
:1026100081F404BFB0FA80F6A4190B3CB4F1200693
:102620002FBF00FA06F1A140C4F1200620FA06F6F9
:1026300038BF3143A0403C1B1AE7AC421ABF05EA41
:102640001357AF4212E050EA41061CBF52EA43065C
:10265000BFE750EA4107304661461CBF41EA0551D9
:10266000F0BD52EA430C08BFC143F0BD00204FF457
:10267000001616EB410F98BF16EB430F08BF16EB81
:10268000410F24BFC14305E016EB430F0CBF614669
:102690004CEA0551F0BD00004FF4001C1CEB410F4B
:1026A00094BF1CEB430F09E041EA030C50EA4C0CC9
:1026B00052EA0C0C03D28B4208BF8242704714BF0F
:1026C0009942904270472800F8B52DED0A8B41ECF5
:1026D0001A0B48004015109D401C43EC182B24D0C9
:1026E00051EC1A0B21F000410022914208BF9042A8
:1026F0001BD051EC180B48004015401C15D051EC74
:10270000180B31F0004108BF90420ED051EC1A0B6B
:10271000DFF87433FFF754FC80F0B18051EC180BF4
:102720009FED870B01F00042BAE051EC1A0B480014
:102730004015401C02D1090340F0A08151EC180B58
:1027400048004015401C01D109035DD151EC180B24
:1027500020F0000221F000430020834208BF8242A3
:1027600008D151EC1A0B48004015401C4CD109030C
:102770004AD10DE048004015401C12D1090310D188
:1027800051EC1A0B48004015401C3DD109033BD1C8
:10279000AFF30080BDEC0A8B4FF0FF306FF00041CB
:1027A000F4BD51EC1A0B21F00041002200239942A4
:1027B00008BF90422BD151EC180B4800400D05EB9F
:1027C000000237D151EC180B21F00041994208BFAB
:1027D000984206D02A4651EC180B00F081F941ECE2
:1027E000180B51EC180B20F0000221F000430020E0
:1027F000834208BF824205D048004015401C03D1E7
:10280000090301D1AFF3008051EC180B38E151EC12
:102810001A0B48004015401C2AD1090328D153EC5B
:102820001A2B51EC180BBDEC0A8B01B0BDE8F0403F
:10283000FFF7DEBB002AC5DD40F2FF7082420FDBEE
:102840009FEDA50B51EC100B084653EC182B03F031
:102850000041084353EC102B034643EC182BC0E710
:102860006FF31E5141EA025153EC182B0B46F4E76B
:1028700051EC180B9FED320B01F0004210E00122E9
:10288000824BFFF709FF11D89FED930B51EC100B12
:102890000A4651EC180BAFF3008001F000400243F0
:1028A00051EC100BBDEC0A8B1146F4BD53EC1A2B06
:1028B00077487849FFF79CFB41EC100B53EC102B49
:1028C0009FED759B03F0004251EC190B0C4614432D
:1028D00053EC192B51EC100B2346FFF75BFCFFF771
:1028E00015FD0446FFF730FD41EC1B0B53EC1B2B91
:1028F0004FF078406A49FFF77BFB02460B4651ECEC
:102900001A0BFFF733FD06460F4653EC1B2B6548A9
:102910006549FFF76DFB02460B4630463946FFF727
:1029200025FD41EC1A0B21F0004100225F4BFFF71F
:1029300047FB09D2B0EE48AAF0EE68AA56E000BF05
:10294000000000000000000053EC1A2B51EC1A0BA1
:10295000FFF74EFB41EC1B0B53EC1B2B5448554926
:10296000FFF746FB544A554BFFF714FC53EC1B2B67
:10297000FFF73EFB41EC1C0B53EC1B2B504851491D
:10298000FFF736FB504A514BFFF704FC53EC1B2B6F
:10299000FFF72EFB53EC192BFFF7FCFB53EC1A2B24
:1029A000FFF726FB41EC190B53EC1C2BFFF7F2FB56
:1029B0009FED47AB53EC1A2BFFF7ECFB06460F4697
:1029C00051EC1C0B53EC192BFFF7D0FC53EC1A2BDA
:1029D000FFF7E0FB02460B4630463946FFF738FD6D
:1029E00053EC182BFFF704FB41EC1A0B51EC1A0BBC
:1029F0002A194800400D02EB00031DD0002B1BDDFF
:102A000040F2FF7083420DDB9FED330B51EC100B56
:102A1000084653EC1A2B03F00041084353EC102BEB
:102A2000034606E06FF31E5141EA035153EC1A2BA3
:102A30000B4643EC1A2B0EE051EC1A0B21F000412F
:102A40000024A14208BFA04205D051EC1A0B00F0AF
:102A500047F841EC1A0B51EC1A0B20F0000221F060
:102A600000430020834208BF824205D04800401541
:102A7000401C03D1090301D1AFF3008051EC1A0BC4
:102A8000BDEC0A8BF4BD000000C89CC000C89C408F
:102A9000FE822B654715F73F000000000000E03F75
:102AA000422EE63FF2E4D5BCE7E84B3E0000903C06
:102AB000112E5781A03F503F5843128C8F71BC3F5D
:102AC0004BE8A541B752013F0BBDF3DAE8708C3FEC
:102AD000000000000000F03F000000000000F07F58
:102AE000124254D440F2FF7C1CEA11530FD06345CC
:102AF00031D09B1863453CBF01EB0251704701F098
:102B0000004141EA0C510020AFF30080704750EAC9
:102B1000410320D001F0004C91EA0C011CD0B1FA25
:102B200081F30B3B9A420DD9D21A994051EA0C011C
:102B3000C3F1200C20FA0CFC61449840531C40F275
:102B4000FF7CD7E7914041EA0C01C2F1200C20FA4A
:102B50000CF3194390407047B0FA80F31533202BE3
:102B6000E0D3202AEED3203A203B9A4209D9D21A48
:102B700000FA03F141EA0C010020531C40F2FF7CF3
:102B8000B8E700FA02F141EA0C0100207047524216
:102B900040F2FF7C1CEA11530DD06345DBD0B2EB51
:102BA000030C3CBFA1EB025170470CF1010221EA7A
:102BB000035141F4801150EA410CCCD001F0004C9B
:102BC000352A27DC30B481EA0C01B2F1200309DA9E
:102BD000C2F12003044601FA03F5D0402843D14056
:102BE0009C400CE0C3F12002450020FA03F418BF1A
:102BF00044F0010421FA03F091400C43002174F1E8
:102C0000004550F1000051EB0C01244230BC7FF430
:102C10007BAF70476146002076E700220A60426879
:102C20004A604268002A14BF116001604160704729
:102C3000D0B52DED048B41EC180B144653EC182B3A
:102C400000206C49FFF774F908BF9FED558B00F029
:102C5000838051EC180B544A544BFFF71DFD1DD8CF
:102C60009FED539B53EC182B51EC190BFFF7C0F958
:102C70000022514BFFF78EFA06460F4653EC182BF5
:102C800051EC190BFFF786FA02460B4630463946DF
:102C9000FFF7DEFB41EC180B44F0010451EC180B7C
:102CA00021F0004101224FF07953FFF7F5FC53D892
:102CB00053EC182B51EC180BFFF79AF941EC190B58
:102CC00053EC182BFFF794F906460F4653EC192BDB
:102CD0003A483B49FFF78CF93A4A3B4BFFF75AFA1F
:102CE00053EC192BFFF784F9384A394BFFF752FAA6
:102CF00032463B46FFF77CF953EC182BFFF74AFAB4
:102D000006460F4653EC192B32483349FFF770F94A
:102D1000324A334BFFF73EFA53EC192BFFF768F9B1
:102D2000304A314BFFF736FA53EC192BFFF760F9B5
:102D30002E4A2F4BFFF72EFA53EC192BFFF758F9B9
:102D400000222C4BFFF726FA02460B463046394646
:102D5000FFF77EFB41EC180BA00705D551EC180BD3
:102D600081F0004141EC180B14F007020BD00FF278
:102D7000880303EBC20251EC180B53681268FFF78B
:102D800009FA41EC180B200705D551EC180B81F01E
:102D9000004141EC180B51EC180BBDEC048BD0BD7D
:102DA000182D4454FB21E93F57CD9E5E1426D13F98
:102DB000AA4C58E87AB6FB3F0000F0BF845D571379
:102DC0004B57B03FB2934C19ED5EE43FBEDE02B903
:102DD0000240F83FDE39028FC7C0743F8AAB1283CE
:102DE000000CC83F24D7E508B6D8F03F0F34580E82
:102DF0005895FD3F0000F03F00000000000000007B
:102E000066732D3852C1E03F182D4454FB21F93F21
:102E100066732D3852C1F03F182D4454FB21F93F01
:102E200066732D3852C10040182D4454FB210940CF
:102E30003FD038C6A6F1044030000000000000007A
:102E400000000000602E00000400000000000000F0
:102E500001000000FFFFFFFFFF0000000100000075
:102E6000080000000000000000000000000000005A
:102E700025EA0210D5C90210180000000000000069
:102E800000000000882E0000080000000000000084
:102E90001000000028130000A82E00008BA00100E5
:102EA00029D70000BDD700005BD50000AFD50000DA
:102EB0003BD5000032000000942E0000402300208B
:102EC00004000000000000000000000020000000DE
:102ED000D82E0000180000001800000000000000BC
:102EE00000000000E82E00000800000000000000C4
:102EF000180000000000000000000000002F00008B
:102F000008000000000000002C000000000000008D
:102F1000000000002C2F0000040000000000000052
:102F200001000000FFFFFFFFFFFFFFFF08000000A0
:102F300000000000B01100004C2F0000115A0100E9
:102F4000215A01003D5A0100315A0100F9D5000013
:102F500023D60000CFD500002F000000342F000042
:102F600050230020040000000000000000000000CA
:102F7000140000007C2F00001C0000001C0000005A
:102F80000000000000000000902F00000000000082
:102F9000080000000000000001000000BF8B0000DE
:102FA00087A00100C7590000C38B0000C78B000039
:102FB000B38B0000D18B0000240000000000000053
:102FC00000000000D42F00000000000000000000FE
:102FD00000000000080000000000000024000000C5
:102FE0000000000000000000F82F000000000000BA
:102FF00000000000000000000800000000000000C9
:103000000A0000001800000000000000000000009E
:1030100014300000080000000000000011A20000B1
:103020003400000000000000000000004C300000F0
:10303000000000000000000001000000000000008F
:103040000100000000000000000000000800000077
:103050000000000018000000000000000000000058
:1030600064300000080000000000000024000000A0
:103070000000000000000000883000000000000098
:103080000100000000000000080000000000000037
:10309000280000000000000000000000B030000028
:1030A0000000000000000000FFFFFFFF0000000024
:1030B00008000000000000003C00000000000000CC
:1030C00000000000EC3000000000000000000000E4
:1030D00001000000000000000000000000000000EF
:1030E00000000000010000000000000008000000D7
:1030F000000000000BD5000025DD021031C80210D1
:1031000075DF021001000000000000000000000058
:10311000000001000000010015F9021001E6021094
:103120002DDA021045E7021041D10210C9D3021076
:10313000A5DF02102DE4021061EA0210CD59010052
:10314000EBC706EEC906F1880CF48A10F78D0AFA6F
:103150004D20FD5128005934015C38020D44031103
:103160005404166C051E9400403100000D07000049
:10317000A9040100DDBA0000DDBA0000DDBA0000DC
:10318000DDBA00007508010093080100DDBA0000F7
:10319000AD080100DD080100E3080100870A010015
:1031A000DDBA00009F0A01009D050100E908010049
:1031B00011090100750A0100050B0100DDBA0000CC
:1031C000F90B0100DDBA0000DDBA0000FD050100C9
:1031D0004D080100DDBA000009DD00007BDD0000C4
:1031E000D3DD000035DC000047DC00003BDF0000E1
:1031F0003FDF0000B5E0000027E100007FE10000B4
:1032000019E000002BE00000C1E20000C5E2000070
:10321000C79F0100D39F010025EA021061DB021065
:103220000805450303100A0064490020684900208E
:103230003A0100000000000000000000C01D002056
:10324000781B0020000000000000000000000000CB
:103250007031000028340000D831000048340000EC
:1032600018320000000000006C490020000000003F
:10327000681B00206C1B0020701B0020741B0020AA
:1032800068310000FF000000544300208432000039
:1032900001FF0000744300209132000001FF000094
:1032A0008C4300209D32000001000000000000005F
:1032B00000C20100FFFFFFFFB043002080000000BC
:1032C00058360000A4430020AC320000010000008A
:1032D0009C1B0020304400200C0000000400000073
:1032E000FFFFFFFF00800400004000007836000070
:1032F00027330020E432000001000000FF0000003E
:103300000000000000000000C1BD000073A7000025
:1033100001010100FF0001000000000000000000AA
:103320000000004017FF0000000000000400FF0044
:10333000080000001000000009080AFF0A00000051
:103340000080004018FF0000000000000500FF00A2
:103350000000010000000200FFFFFFFF0A00000064
:10336000A03600004044002020330000A0360000BA
:10337000144500204033000002000000001000400F
:103380000600000015000000FF0000000000000023
:103390000302FFFF38480020200000000103000066
:1033A0000000000000B000401400000034000000E5
:1033B000FF00000000000000FFFFFFFF5848002052
:1033C000200000000103000000000000B8360000EB
:1033D000E84500207C330000B8360000104700208C
:1033E000A433000002000000000002400A29FF0090
:1033F00078480020E833000008000000F44E002068
:10340000F833000000000000000000000A18232A22
:10341000242A252A262A272A282A292A2A2A502AFB
:10342000020000000C340000555F0100C75F01007E
:10343000D75F01002F60010093A0010099A0010057
:103440008F600100F96001001DDB00003FDB000020
:1034500059DB00009D8F00002F8F00003B90000083
:1034600081900000A1900000C98E000051900000E2
:10347000E38F00002D910000218F00005791000084
:103480004B91000039910000958F0000978F00004C
:103490006B9300009B8F0000998F0000F0FFF1FFFD
:1034A000F2FFF3FFF4FFF5FFF6FF0000020000005B
:1034B0009C340000576F726B2077697468000000BD
:1034C000536574204175746F436F6E6E656374004D
:1034D00044697361626C650047726F7570204100CA
:1034E00047726F757020420053657420436F6E6E93
:1034F0002050485920507265666572656E6365009C
:1035000031204D627073000032204D6270730000F4
:103510003120262032204D6270730000436F6465B5
:10352000640000003120262032204D6270732C2070
:103530002620436F646564004175746F20504859BC
:10354000206368616E6765007B7374617469632DC5
:10355000696E7374616E63652D6E616D657D0000CB
:103560007B656D7074792D696E7374616E63652D02
:103570006E616D657D0000007B756E6B6E6F776EA2
:103580002D696E7374616E63652D6E616D657D006E
:1035900096C298D84539A1F4A033EB2D817D0377ED
:1035A000F240A463E5E6BCF847422CE1F2D1176B88
:1035B000F551BF376840B6CBCE5E316B5733CE2B5B
:1035C000169E0F7C4AEBE78E9B7F1AFEE242E34F8A
:1035D000FFFFFFFFFFFFFFFFFFFFFFFF00000000F7
:1035E000000000000000000001000000FFFFFFFFDE
:1035F000FCFFFFFFFFFFFFFFFFFFFFFF00000000DA
:10360000000000000000000001000000FFFFFFFFBD
:103610004B60D2273E3CCE3BF6B053CCB0061D6586
:10362000BC86987655BDEBB3E7933AAAD835C65A0F
:10363000512563FCC2CAB9F3849E17A7ADFAE6BC54
:10364000FFFFFFFFFFFFFFFF00000000FFFFFFFF86
:103650005BE8000001E90000690D01006B0D01004D
:10366000E90D0100110E0100A50E0100410F01003E
:10367000590F01005F0F01009D100100A51001000E
:10368000AB100100DB100100F51001004311010037
:103690005B110100CF1101000D1201001512010094
:1036A000D51401002B150100FF17010009180100B6
:1036B00087190100A91B01007928010001290100D7
:1036C0002927010039270100092B01004B2C01009B
:1036D000512C0100652901005F2A0100652A0100C3
:1036E0000200000030C90000303132333435363743
:1036F0003839616263646566000000000200000002
:1037000000000000FFFFFFFF0000000002000000BB
:103710002CC90000A3A00100FD6B01000000000007
:10372000034F0020064F0020054F0020074F0020C8
:10373000044F0020F4440000D84E0020A0270020B1
:103740000A4F00200B4F0020C1270020C227002075
:1037500034C9000038C9000058C9000040C9000041
:103760003CC90000F1A201001B2C00003D3D0100FE
:10377000413D0100C52F0100F1330100493C01002A
:10378000E538010011640100D13801000134010065
:1037900017320100F931010049300100B532010052
:1037A0005D6D0100C9A2010097AB00001FA10000E0
:1037B000A1550100396F010025700100257101003C
:1037C000353201002557010091570100FDA201008B
:1037D00051A30100BD6F0100C16E0100DD6D01004C
:1037E000756E01001943010005400100D56A021001
:1037F0002D920110A1F101104D0A0210495E021034
:103800009571010049AA0110D52A021075D4011042
:10381000A1710100794B0110154B02100515021022
:1038200067AC0000217A0110514D0210F5E2011041
:10383000E1230210010A0210AD710100A52302105C
:1038400081CF011045FB0110994B021095510210D8
:10385000C537021091370210911D0210A10E0210FF
:103860002D380210796E0210816E0210756E0210F2
:103870005D4502107D6E0210255302106159021041
:10388000AD520210FD520210D5520210895E021094
:1038900019550110A5D60110E5C00010756D021074
:1038A0002D690210493F021099C50110356B0210B5
:1038B000C97201009DC4001011EC001085110110A7
:1038C000456B02103D6C0110D9CA0110ED260210A3
:1038D00021A10110716F011005550210E13E021087
:1038E000D96D011061500110F11702103DA30100C4
:1038F000ED7F011075660210DD7A01107D4D02101A
:10390000D9260110ADFF0010BD66021059E3011069
:10391000659A011065A70110D9AA011039BF0110DD
:1039200011F30110515C0110155A0210D11E021042
:10393000AD2D021005560110156B0210757F0100A8
:10394000DD540210056B0210AD460210FD47021057
:103950003D2D0210F159021065270210CD470210CB
:10396000310F021065A30100E9DA0110F9B001106E
:1039700021DE011069B60110E9C90110B5F201108C
:10398000790F0210295F0210418A011085EC0110A5
:103990002D54011029270210E9840100C171010092
:1039A0003DA301003DA301003DA3010095040210C9
:1039B000D131011045ED0110052D02103DA301008C
:1039C0003DA301003DA30100D53C0110B5540210F8
:1039D000A56E011061CA011091FD01103DFD01109D
:1039E000918F0110B5A9011015E60110ED660210C6
:1039F00055690210A15B0210A16202107D490210FC
:103A00003D2F0210696002102D4E0210956E0210BB
:103A1000996E02105D5A0210E5F601103DA30100F7
:103A2000311601103D5301102D450110A96E0210F1
:103A3000ED8A0110AD6E0210A56E02103DA30100CB
:103A40003DA301003DA301005D480210395A021058
:103A5000B16E0210014E0210E9FC011045F1011097
:103A6000A55A0210AD170210A16E02108DA8011008
:103A7000256B02108D6602109D6E021069170210F0
:103A8000815A0210E56B021081A3011055550210F6
:103A9000A127021059510110B9110210F555021059
:103AA0000112021039D20110DD4E0210BD62021067
:103AB000DD490210459C0110EDF701109DA30100A6
:103AC000616C021051340210656E0210696E0210B2
:103AD000DD4302106D6B01102D480210C10F021062
:103AE000F9A701108DF6011089DE0110696202103C
:103AF0007D430210511B0210BD180210F10C021080
:103B0000816D0210059B0110E110021015C6011015
:103B10002D5502101D620110153F0210294401109D
:103B2000B1E501102D860110BD940110A11A0110FC
:103B3000C13B0110418E011019690210E5EC011022
:103B4000752D0210315D0110BDE30110559F01106C
:103B5000E50A0210752F0210B9CC0110B14E021007
:103B6000310B021055DB0110CDB401106DF30110C3
:103B70000D680210DD67021005670210291102109E
:103B800019400210D11F0210AD2F0210854E0210F5
:103B9000297E01003176010061D801108D5A011093
:103BA00051FD0010199401108D2E0210AD49021024
:103BB00089AC0110C55B0210DDD0011065790100F0
:103BC000892F011029750100C52E0210856202108F
:103BD000C95F02109579010029E0011045870100B5
:103BE00019280210791802103518021039C0011076
:103BF000ED480210416902107D550210ED6D021072
:103C0000CD550210695F02107D1D01103DA301001A
:103C1000B51701103DA3010059DF0110A97901007A
:103C2000FD7C0100B9C0011021840100E53F0210B4
:103C3000697D01005579010089420210E57A010091
:103C400049790100E95F0210018701003DA30100ED
:103C5000856B0210A5ED01104DE5011081010210E8
:103C6000A95F0210DD27021021420210BD48021098
:103C7000E5040210656B0210C9860100A1890100EC
:103C80001D49021055420210D56602102DE20110A6
:103C9000556B0210A5660210511F0210CD190210BB
:103CA00025930010F9AB01100D9A0010111F02109E
:103CB00029B30110A5550210A180011011B2011005
:103CC000E98E011019770100757D0100895F0210EE
:103CD00051CB011095F7011005EE0110991002105B
:103CE00021E401103DA30100AD430210552E021046
:103CF000117D0110C97D0110A95901102D77011006
:103D000055810110C9AF00104DEE0010ED68011093
:103D10001568011099D900102DF9001099BA0110F9
:103D2000B9BF01103DA301001D34021081F0001045
:103D3000718A0100E9E40110C9CB0110557C011022
:103D400091E00110F9E001104589010035050210EC
:103D500051D101103DA30100C1EE0110511002101C
:103D600085E4011041CC0110C1DF01109DB20110AA
:103D70007D850110F1B60110B13F021009600210FB
:103D8000416E02101DC5011041B40110011902104D
:103D9000B5B3011021A90110CD84011025EC01104B
:103DA0003907011069D001105D6602103D54021000
:103DB000911E021045660210CD5902108D5402105A
:103DC000952C021065540210AD3E0210516D021088
:103DD000D54D021015540210D1200210A531021049
:103DE000C56B0210C95E021069AB0110E95E0210DA
:103DF000A93D0210396D02108559021021130210DD
:103E00007D5B021045290210DD46021085B10110CC
:103E100025170210DD6802104504021035D6011086
:103E2000C5EB0110D56B0210A94D021005690210F7
:103E3000D5630110B99E0110113E0210B126021087
:103E40005D2C02106D470210F56A021035F6011064
:103E5000A1C40110A5EA01105916021025C40110D1
:103E600095670210F1680210FDF101107907011049
:103E7000F9220110D192011015BA011051A20110BE
:103E8000DDF50110EDFB01101D840110A959021090
:103E90004D620210ED5302103D4702109D160210B4
:103EA000E1160210DD3D021065EB0110111E02103B
:103EB00075930110FD650210511E0210A121011021
:103EC0006913021059F20110595B0210990A02108D
:103ED00031470110355B02101566021031480110A0
:103EE000793E0210F5CF011011DA01103D67011083
:103EF000453E0210E9A20110DD31021005EB011070
:103F00002D66021065670210A56B0210196E021073
:103F1000B9630210E169021019610210596E0210B2
:103F2000556A0210456A02105D6E0210556E02104D
:103F3000F5D70110E9330210E95C0210111A0210E2
:103F400045510210C95C0210E16002104D210210BF
:103F5000511A0210695C0210610C02104D430210EC
:103F60004D33021019330210496002107D640210B3
:103F7000CD690210ED5A021025060210AD5702104D
:103F8000C1DB01101D430210115B0210F51302107A
:103F9000295D0210AD640210ED50021015320210BE
:103FA000E5320210A95C02107D320210ED420210CF
:103FB000D11A0210BD420210911A0210892102107A
:103FC000B1320210895C021049320210316C0210C9
:103FD000256C0210F529021065EE0110C560021073
:103FE00065730110111B02105D3702106DB00110D6
:103FF000295E0210C90D021005D40110BD82011006
:10400000819D0110F9C801103D590210C1610210D3
:1040100055650210E13401003D36010081A1010027
:1040200085980110A5030210D1580210990C0110B7
:104030003D4402109D440210DD6102109DFA011002
:10404000F5360210D9A50110E1B501106D6E021010
:10405000716E021059360210252D0110F503021061
:104060008D36021015A20100B9BD0110657901104D
:104070006D650210A5A2010037A20100216D02109A
:10408000156D0210F9610210E94A0210259901101C
:1040900029370210F5580210F50F011015620210B1
:1040A000E95D02108565021019590210095E0210BF
:1040B000A56102101134011045A501100DB90110C0
:1040C00039D901102D35011051DD0110B1C2011097
:1040D0009D720110958901108DF0011055AF0110EE
:1040E00085F50110C114021069090210CDD8011024
:1040F00089A0011085080210D10802101D090210C4
:10410000253602103DA60110FD3B0100A93B010030
:10411000D1A60110E5650210CD4402109D65021084
:104120000D6D01109134010071C90110111C0110B5
:1041300065660110CD360100998D01102D35010005
:104140000539010049240110F18C01107D3A01006C
:10415000ED3A0100DF9F0100C5990110911B02108B
:10416000D9690100C5210210316E021021BD011074
:10417000D11B02106D610210C56A0210B9C1011095
:1041800005E8011025E9011039140210ED34021080
:10419000D95701109FA0010031460110E5E9011037
:1041A000111D021055030210E5970110B56C0210A5
:1041B0009D6C0210A96C0210396E0210496E02103B
:1041C0002135021025F40110A1BB0110B502021027
:1041D000895D0210D5710110654A0210390D021077
:1041E0007D38011095D301108991011035C201105D
:1041F0003D220210C16C0210CD6C021005030210AA
:104200005507021021BC0110BD060210090702105B
:10421000394A02102143011099CE011065E80110BE
:10422000AD580210A5E70110756A0210956A0210D8
:10423000856A0210A56A0210F56402108935021021
:104240000D650210D5EF0110A1BC0110A1070210ED
:10425000DD6E0210B1640110D96E02100D41011023
:10426000DD8601100140011005C801104D4002100B
:1042700085D70110F5F80110E52B01109DF801100C
:10428000097101101D670210F562021081290210E8
:10429000D962021069690210B54002108140021013
:1042A000150C021079480110A5140110754C01106D
:1042B00035090110592E0110714D011089FF0110AF
:1042C000256802107D69021045190210354F021051
:1042D0008500021089C701108D87011079490110EE
:1042E0001D300210458C0110DDFF01105530021009
:1042F000619501104556021011200210C90B0210E1
:104300001DBB011011630210E94002102D63021061
:10431000FD30021049630210F1320110F15E01100C
:1043200061E10110A56D021009F700108D30021037
:10433000C5300210094F0210CD280210D505021019
:10434000DDE60110296002109128021051200210B0
:104350003100021049360110911202106D4E011009
:10436000A9CD0110D900021041E70110D9120210A5
:1043700021CE011019A4011001B801105141021001
:10438000A52A01101D41021045F80110B94F021075
:1043900011500210E54F021085410210614F0210CA
:1043A0009550021035670210092902108D4F021036
:1043B00081630210098201109D63021035570210BB
:1043C00069500210BD5602103D500210E556021011
:1043D000A5690210B94102106D560210C95A0210A7
:1043E00089600210353102101D56021095560210D8
:1043F000C15801105D5702100D570210C9F301108A
:10440000E53D0110998B0110ADD20110E52F02108E
:104410003DA30100E5FD011021D301104912021056
:1044200079E6011039FE011039C101100DC70110E4
:1044300045FB0010794A0110B1F2001061600110D3
:10444000D59D0100996D02107D0B0210115E0110C7
:1044500085E901107D140210810D02103D880110C4
:104460002D2A0210ED7701108D65011069DC001016
:10447000715B0110914A021031F00110A95D021028
:10448000652901105535021001220210694F0110F3
:10449000B934021065020210695D021081800100CA
:1044A00061710100ED6D0100B9A101100DCF011086
:1044B000817E01102D230210E52F010025680100E7
:1044C000019F01000000000002000000FFFFFFFF4D
:1044D000E1890100FF0000000000000000616200AF
:1044E000DC440000010000000000D002EC000021CC
:1044F0005F0000000000000000000000EC4400002D
:10450000E844000000000000922100004623000063
:104510006A2300004E24000096260000A6BC00007E
:10452000A7BC0000F0440000C6260000625900004D
:10453000502700200C0802170D0101020909010192
:104540000602091818030101090903030503000005
:104550000000000002000000FFFFFFFF0102000357
:104560000200010310B5DFF83818CA684B694C68BF
:10457000D318A34206D28B6843F82200C868401CB7
:10458000C86010BD6FF003028A6110BD38B5DFF856
:1045900010381C695B69C0F38700002200E0521CE0
:1045A0009A4206D214F82250A842F8D10A6000209C
:1045B00032BD6FF0060032BD10B5DFF8E4375C693C
:1045C000DA6814195A6894420FD21A69121F1A61D4
:1045D0008008146860F307041460107840EA012032
:1045E00010605869401C586110BD6FF0030199615B
:1045F00010BD02290CD3DFF8A8279060516000EBB2
:104600008100011F11610021D16051619161117020
:104610007047DFF88C2708B19368036009B1D06850
:10462000086090697047DFF8781718B10020C860FB
:10463000886101200870704750B5002400E0641CB8
:10464000944205DA0E5DB042F9D11C70012050BDD4
:10465000002050BD1CB50C46C16801290ED101686F
:1046600002290FD040680FF2500100F07AF810B321
:104670009DF800000FF248010A5C1BE0D9B90168FF
:1046800002290AD040680FF240016B46052200F073
:104690006AF880B10FF2380009E040680FF2380183
:1046A0006B46032200F05FF828B10FF230009DF84E
:1046B0000010425C59E05BE003040506080A0000B4
:1046C000120C060504030000050708090B00000092
:1046D0000F0C0A0906000000090A0B00120F0C005B
:1046E0001CB50C46C16801290ED1016802290FD002
:1046F00040680FF2500100F034F810B39DF800004C
:104700000FF248010A5C1BE0D9B9016802290AD0FE
:1047100040680FF240016B46022200F024F880B19D
:104720000FF2340009E040680FF230016B460222BC
:1047300000F019F828B10FF228009DF80010425C33
:1047400013E015E003040507090B00000F0A050438
:1047500003020000070B00000A050000090B00001F
:104760000F0A6B460622C0B266E72270012016BD12
:104770000020207016BD000078B587B004460D46B5
:104780000020002C009018BF002D286000F09980B8
:10479000E0680C2804D2A168022901D82269042A01
:1047A00080F08F8026681423042E28D8DFE806F0D6
:1047B000031028643C006068D4ED070A434300EE10
:1047C000103AB8EE400A20EE200ABCEEC00A14E00F
:1047D0000FF2F400626850F82100D4ED070A921C31
:1047E0004243521C534300EE103AB8EE400AB6EE74
:1047F000001A00EE201ABCEEC10A8DED000A5EE040
:104800000FF2D402616852F82000491C4143491C50
:104810000091012121606946009800F077F802209C
:10482000206000980F3049E0207E05900026A068A7
:10483000029002A8E16803910DF10501FFF70AFF5C
:1048400018B19DF80500461EF6B201A902A8FFF7AF
:1048500047FF20B19DF804008619761EF6B20221AA
:10486000216069466068301800F050F8042020602C
:104870006068861B666022E0606903281AD8DFE85A
:1048800000F00604020D002006E0012004E0607E36
:10489000002814BF02200420206008E001202060CE
:1048A00001216068521C01FA02F2424362606946CB
:1048B00000F02DF803202060009819300090009837
:1048C000286008B070BD0000050000000400000072
:1048D0000200000000000000160000002C00000094
:1048E00059000000B20000000B010000150200009A
:1048F000800200009B0200002003000079030000FA
:104900002B04000035050000000000006060204618
:1049100032E72DE9F84F2DED048B044682B088462E
:104920006169207CE66894ED028AD4ED018A4F1E0D
:10493000491C0028F4EE488A4AD0F1EE10FA1ED540
:104940000F46B74288EE280A08BF002700F0E0FFB4
:1049500041EC100B00F0F7FF00F0A0F853EC192B1E
:10496000FDF746FB00F095F800F088F800F080F8BD
:10497000B0EE409AF0EE609A18EE900A21E0751EB3
:10498000B74288EE880A28BF2F4600F0C1FF41ECED
:10499000100B00F0D8FF00F081F800F075F8024627
:1049A0000B4651EC190BFDF753FD32465B46FDF704
:1049B0001FFB00F05DF8B0EE409AF0EE609A18EE42
:1049C000100A00F0CFFF53EC192BFDF711FB43E069
:1049D000F1EE10FA1DD50F46B74208BF002718EEBA
:1049E000900A00F0BFFF82468B46384600F0DEFF9B
:1049F000054638EE680A894600F08AFF2A464B468B
:104A0000FDF7F6FA00F045F800F038F852465B463C
:104A100020E0751EB74228BF2F4618EE100A00F09E
:104A2000A1FFCDE90001384600F0C0FF064638EE90
:104A3000C80A8B4600F06CFF32465B46FDF7D8FA99
:104A400000F022F802460B4630465946FDF700FDBD
:104A5000DDE90023FDF79EFB00F0B6FF00EE100A33
:104A6000676188ED000A02B0BDEC048BBDE8F18FF0
:104A700041EC110B9FED220B00F06BBF02460B4681
:104A800028464946FDF7E4BC06468B46284600F01A
:104A90008DBF05468946701E00F088BFB0EE409A73
:104AA000F0EE609A384600F081BF0000A0F50040AB
:104AB000491E00EE900A0329F8EEE00A12D8DFE85A
:104AC00001F00205080DB7EE081A09E0B6EE001A6B
:104AD00001E0B5EE001A60EE810A03E0B2EE021AC0
:104AE000C0EE810A20EE800ADFED040A20EE200AE3
:104AF0009FED051A20EE010A704700000000003803
:104B00000000000000002440110E813F80B58DF8A8
:104B10000100012269460DF1010000F0C7FF9DF878
:104B2000000002BD80B5010A8DF802108DF8030067
:104B3000022269460DF1020000F0B8FF9DF8001056
:104B40009DF8010040EA012002BDE0B5010E8DF89C
:104B50000410020C01A94A70020A8A70C87004226B
:104B6000694601A800F0A2FF9DF801009DF8002011
:104B70009DF80310000440EA02609DF8022040EA1C
:104B8000022008430EBD10B5044601F035F920207F
:104B9000FFF7BCFF2046FFF7C5FF01F032F901F037
:104BA0002BF96D20FFF7B2FF0020FFF7AFFFA4F550
:104BB000805442F21500844203D20020FFF7C5FF63
:104BC00002E00020FFF7AEFF044601F01AF920468C
:104BD00010BD70B50E46032E05461ED201F00CF92D
:104BE0002020FFF793FF42F26C00FFF79BFF01F0DC
:104BF00008F90024B44236D201F0FEF86D20FFF728
:104C000085FF0020FFF782FF0020FFF79EFF45F899
:104C10002400641C01F0F5F8ECE701F0EDF85F20EA
:104C2000FFF774FF06240020FFF770FF641EFAD11F
:104C3000B61E05E00020FFF788FF45F82400641C3D
:104C4000B442F7D34FF04430FFF77FFF45F824001C
:104C50004FF04430FFF779FF05EB84014860BDE871
:104C6000704001F0CEB870BDF8B5DFF8B056074619
:104C7000287801280C4623D1B7F5085F03DB6FF0D5
:104C80000401A961F1BDB80824F07F46694646EAEF
:104C900000663846FFF77AFC46F0004640B92869BE
:104CA000009910F8212042EA042240F8212003E074
:104CB00021463846FFF780FC3046FFF753FCF1BD34
:104CC00001F09AF82020FFF721FF3846FFF72AFF6E
:104CD00001F097F801F090F82D20FFF717FFA7F5E6
:104CE000805142F21500814203D22046FFF72DFF8A
:104CF00002E0A0B2FFF716FF01F083F8F1BD00005B
:104D000038B5DFF8185604462878012814D16946CA
:104D10002046FFF73BFC40B12046FFF734FF054635
:104D200029462046FFF748FC04E02869009950F81E
:104D300021502D0A284632BD2046FFF724FF32BD00
:104D400038B5202000F078FE15480FF258050021F4
:104D5000C160416181610170002401F052F8281D99
:104D600050F8341035F83400FFF77EFF641C0E2C29
:104D7000F5D340F20440FFF7C3FFDFF8A415088025
:104D800045F2015290421ABF45F202529042012070
:104D900003D0B0F5AA4F02D100200871887031BD50
:104DA0000431002008090000C9020000080C0000BE
:104DB0006C200000F0210000100000001004000032
:104DC000C9020000280A0000090000008C2300002E
:104DD00004010000040A000059480000040A000011
:104DE0007BF20000000A000009800000F0220000B1
:104DF0000000000030220000AFA587DE5022000036
:104E00003F100000B02200003C20000030220000D3
:104E1000A0A587DE38B504460D464FF40050FFF7D5
:104E20006FFF012D24F020010CD1A20644BF20F019
:104E300020000C46210344BF20F4002024F4002469
:104E400004430CE0A20644BF40F020000C462103BE
:104E500044BF40F4002024F4002420EA0404214646
:104E6000BDE8344056E240EA810142F2F020FBE620
:104E700010B500F048FA227820F020010AB941F07C
:104E800020014FF40050FFF7EFFE4FF40650FFF7FC
:104E900037FF61780129A17808BF40F0010001299E
:104EA000E17808BF40F010000129217908BF40F0E7
:104EB00004000129617A08BF40F020000129A17A8D
:104EC00008BF40F480700129E17A08BF40F0020079
:104ED0000129217B08BF40F00800012908BF40F0EC
:104EE000400001464FF40650FFF7BEFEA0790021B6
:104EF00000B90221607908B941F00101E079BDE80B
:104F00001040012808BF41F0040142F25000ABE616
:104F100010B5044604F1100000F029F804F1500027
:104F200000F038F8204600F005F804F11C00BDE858
:104F3000104073E010B5044642F250102168FFF7AC
:104F400093FE616842F25810FFF78EFEA16842F2AC
:104F50005410FFF789FEE16842F25C10FFF784FE0F
:104F6000BDE810404FF4803142F20C007CE602684C
:104F70000021012A426808BF4FF48051012A82684B
:104F800008BF41F00101520002F4FF72114342F2E6
:104F9000100069E610B5040000D138E2206903284A
:104FA00004D30B289CBF6069052802D96FF001006B
:104FB00010BD216842F2FC00FFF756FEA068616850
:104FC00041EA4011207B012808BF41F0100142F264
:104FD000F000FFF749FE206961690B280DD2032814
:104FE00028BF083007D2052907D20FF2200200EBB4
:104FF00080001044405CC00000E0F820014342F211
:10500000F800FFF731FE002010BD00000001020390
:10501000060304050607070709090A0010B5044638
:105020002068022812D1216A42F23000FFF71CFEEC
:10503000616A42F23C00FFF717FEA16A42F23800B3
:10504000FFF712FEE16A42F2340021E003281CD18E
:10505000A16842F21800FFF707FEE16842F21C0067
:10506000FFF702FE216942F22000FFF7FDFD6169B2
:1050700042F22800FFF7F8FDA16942F22400FFF791
:10508000F3FDE16942F22C0002E0216B42F248009C
:10509000FFF7EAFD2079226800210128607908BF26
:1050A00020210128BDE8104008BF41F0100141EA6D
:1050B000420142F21400D7E580B500F006F8BDE8E1
:1050C0000440014642F23000CEE5954810B51A245E
:1050D0002DED028B0179F0EE608A012908BF1E24B4
:1050E000F5EE408AF1EE10FAB0EE408A08BF0020DB
:1050F0001DD001200021224602F05AFA02F06AFA7D
:1051000000EE100A20EE080A80EE280AF6EE000AE9
:1051100030EE200ABCEEC00A1A2C10EE101A0CBF9A
:10512000DFF8E0076FF07F40884288BF0846BDEC9B
:10513000028B10BD10B5044600F005F804F1200004
:10514000BDE8104047E010B50446A1686068626998
:10515000090141EA8011E06841EAC001207E41EA8C
:10516000820108B941F00101627E0AB941F00201F1
:10517000206870B942F22810FFF776FDA18B608B92
:10518000C9B200F015F8216941F0200142F2241063
:105190000DE042F23410FFF767FDA18B608BC9B2BE
:1051A00000F010F8216941F0200142F230103DE09A
:1051B00000BF01F03F01C0F30B0040EA013142F2B1
:1051C000201051E501F03F01C0F30B0040EA01312E
:1051D00042F22C1048E510B504460021207E00B9AB
:1051E0000221607E08B941F001012069A26863686C
:1051F00004280CBF41F0040141EAC001E0689202BA
:1052000042EA401242EA43322068114338B942F27E
:10521000EC00FFF729FD616942F2E40006E042F28A
:10522000E800FFF721FD616942F2E000BDE81040AF
:105230001AE510B5044600F034F804F10C0000F053
:105240003AF804F1200000F06DF804F1280000F0B5
:1052500090F804F13400BDE810407BE080B50021F7
:1052600006281CD8DFE800F004070A0D101316000A
:1052700042F2740010E04FF402500DE042F284005C
:105280000AE042F2780007E042F27C0004E042F2D9
:10529000C81001E04FF40750FFF732FD0146084601
:1052A00002BD01684268836841EA022141EA034184
:1052B00042F2A810D8E438B5044642F2440500F0A2
:1052C000EDF800F08001E06822680143207C0128AD
:1052D000607C08BF41F010010128606808BF41F000
:1052E000400141EA0021A06841EA023141EA8031EF
:1052F00000F0D9F8A07C28B1BDE8344001214FF47A
:10530000803087E531BD04464FF40050F8E4BDE835
:10531000104001464FF40050A6E400000431002084
:105320002033002010B5044642F2A8002188FFF780
:105330009BFC618842F2AC00FFF796FCA18842F228
:10534000B000FFF791FCE188BDE8104042F2B400E4
:10535000FFF78ABC027A03680021012A426808BF6D
:10536000012141EA021141EAC31142F2C410FFF7E0
:105370007BBC70B5044642F2440600F045F8014695
:1053800060680025032804D141F0800100F045FA4F
:1053900005E021F0800100F040FA65682D052068E5
:1053A000217A45EA0015012908BF45F00105294683
:1053B000BDE8704042F2D000FFF756BC70B504461D
:1053C00042F20805002100F06EF842F2D81600F013
:1053D0001BF800F03F016068A26841EA402141EA01
:1053E000821100F01AFA2169090442F2E010FFF775
:1053F0003BFC207800210128E06808BF4FF40061E1
:1054000041EA403128461DE23046FFF779BC6FF093
:10541000020010BD0022012908BF4FF4006242EAD9
:10542000403142F20800FFF71FBC80B54FF408502E
:10543000FFF766FC000C02BDF8B5044642F2080511
:1054400000F02CF80646002100F02DF842F2D817A3
:105450003846FFF755FC8109206840EA811141F088
:10546000080100F047F8E07942F2040730B100F09B
:105470004BFA002142F26400FFF7F6FB207900218D
:105480000128A06808BF012141EA002100F032F89C
:1054900031462846BDE8F440FFF7E6BB2846FFF753
:1054A0002FBC4FF400612846FFF7DEBB01460429FC
:1054B00006D2012000FA01F14FF48660FFF7D4BB59
:1054C00070472DE9F04104460D46164642F270073A
:1054D00042F2D41808E021464046FFF7C5FB55F8D4
:1054E000041B00F007F8641C3046461E0028F2D169
:1054F000BDE8F0813846FFF7B7BB000010B50446A1
:10550000206803281AD8DFE800F002070E1300F025
:105510001FF842F2CC100FE0A268616841EA024134
:1055200042F2E81008E000F013F842F2D01003E075
:1055300000F00EF842F2E410FFF796FB207B012802
:1055400005D1A26821696068BDE81040B9E710BDC7
:10555000A068616841EA004170470000014642F2DC
:105560005400FFF781BB10B5044640F60800616B9C
:1055700089B2FFF779FB606BC0F3034140F60C0082
:10558000FFF772FB616A89B24FF40160FFF76CFBB1
:10559000606AC0F3034140F61400FFF765FBA16B9E
:1055A00089B240F61800FFF75FFBA06BC0F3034120
:1055B00040F61C00FFF758FBA16A89B24FF4026065
:1055C000FFF752FBA06AC0F3034140F62400FFF747
:1055D0004BFBE16B89B240F62800FFF745FBE06B1F
:1055E000C0F3034140F62C00FFF73EFBE16A89B2AD
:1055F0004FF40360FFF738FBE06AC0F3034140F665
:105600003400FFF731FB216C89B240F63800FFF718
:105610002BFB206CC0F3034140F63C00FFF724FB5A
:10562000216B89B24FF40460FFF71EFB206BC0F3BF
:10563000034140F64400FFF717FB012140F61C2010
:10564000FFF712FBA0682179800001F0030100F050
:105650000C000143E068000100F0300001432069C4
:10566000800100F0C00001436069000200F4407056
:105670000143A069800200F440600143E069000337
:1056800000F440500143206A800300F4404001438D
:1056900040F60400FFF7E8FA94F84400226800217D
:1056A0000128BDE8104008BF012141EA42010FE096
:1056B00010B504464FF40060FFF722FB4FF6FE7171
:1056C0000840012C08BF40F00100BDE81040014631
:1056D0004FF40060FFF7C8BA0000F8B5074600F0C5
:1056E00097F80646F87C012840F60C244CF6143551
:1056F00009D100F014F946F0040600F04FF800F06C
:1057000087F84005FBD5387C01280FD100F007F958
:1057100046F0020600F042F800F07AF88005FBD56A
:10572000787C012818BF002000F03DF8B87C0128E3
:1057300009D100F0F4F846F0010600F02FF800F06F
:1057400067F8C005FBD5F868397A800101F03F01A0
:1057500000F4707001434FF48160FFF785FA00F0A8
:10576000DBF83968786841EA800140F21440FFF7BD
:105770007BFAF87C08B926F00406387C08B926F0D4
:105780000206B87C08B97608760000F0C8F8314601
:10579000BDE8F4404FF42160FFF766BA31464FF49C
:1057A0002160FFF761BA70B504464FF48260FFF7DD
:1057B000A7FA420800F0FF0102F48072450011438D
:1057C00005F400750D4345F020014FF48260FFF7AA
:1057D0004BFA42F2BC06FFF717FE012C0FD120F066
:1057E000040100F01AF800F013F88005FBD525F04D
:1057F0002001BDE870404FF48260FFF735BA40F0F9
:10580000040100F00AF800F003F88005FBD5EEE78C
:105810004FF42160FFF774BA00213046FFF724BA35
:1058200070B543F20806012808BF43F20C060C4687
:105830001546FFF7E9FD012D0CBF044320EA0404DF
:1058400021463046BDE87040FFF70EBA014643F2EC
:105850000400FFF709BA10B500280C460CBF43F24C
:10586000100043F21400FFF74BFA204018BF01204C
:10587000C0B210BD10B5044600202168FFF7F4F94E
:1058800061680420FFF7F0F9A1680C20FFF7ECF93C
:10589000E1680820FFF7E8F92169BDE8104014200D
:1058A000FFF7E2B9014642F21810FFF7DDB910B573
:1058B00042F21C1400F037F82046BDE810400121E8
:1058C000FFF7D2B970B50446002544F244164FF4F0
:1058D0008060FFF715FA6D1CB04203D0012CF6DB97
:1058E000AC42F4D2284670BD80B500F096FAC820CC
:1058F00000F018F900F08CFABDE802404FF4FA709D
:1059000000F010B9FFFF0F0000213846FFF7ACB9D7
:1059100010EE100A00F026B80A2000F003B929465C
:105920002046FFF7A1B900212046FFF79DB90000EE
:1059300041EC100B01BD80B553EC112B51EC100B59
:1059400001F074FEF4E780B551EC100B02F09AF808
:10595000EEE780B553EC112B51EC100BFCF7CEF8B1
:10596000E6E72800C0F3C75181B1FF2906D0C11076
:10597000400721F0E04101F16051704741020CBF46
:1059800040F4E0016FF000410020704700F000415A
:1059900000020AD0B0FA80FC00FA0CF001F160516C
:1059A000A1EB0C5101EBD02140057047014648B1F5
:1059B000B0FA80F18840C91CC1F58461090501EB8A
:1059C000D02140057047704701F000428B1AA3F1C7
:1059D0006051B1F5801F0ADBB1F17F6F1FD242EA3F
:1059E000C102C10071F1004142EB507070470B15CC
:1059F000C3F10903212B10D2890241EA90518002A0
:105A00000128494141F0004121FA03F0C3F120038C
:105A1000994071F1004150417047100070476FF09C
:105A2000000013EB103F5CBF000E42EAC05070470D
:105A3000DFF800F001CE021010B5474C00212170B4
:105A400060614FF0FF31616002200021A16021738D
:105A5000207620464249216102F056F82146002076
:105A600002F032F8E16BA06328B900F014F8452089
:105A700000F00BF8FEE700F00EF8532000F005F8F8
:105A8000BDE810403548FFF7D3BFE16B0871002037
:105A9000E16B48717047412008705420E16B4870F9
:105AA000E16B88705F20E16BC870704710B52A4CBD
:105AB000226260620022E06BE262A16200F003F801
:105AC00000F009F810BD04F120018268521C8260C8
:105AD000A06B02F021B890B9E06B38210170522020
:105AE000E16B48705720E16B88705F20E16BC870F4
:105AF0004520E16B08710020E16B4871FEE738201A
:105B0000E16B08705220E16B48705720E16B8870A0
:105B10005F20E16BC8705320E16B08710020E16BDE
:105B20004871704780B50A214843FFF73FFF0D4A8F
:105B30000D4BFCF75DFA02F003F8BDE80240FFF7F9
:105B400077BF0A49086070470848006870470749EE
:105B500000200860012070479C480020A0860100BA
:105B6000801A0600FCA9F1D24D62503F98480020EF
:105B7000DFF800F0295E0210DFF800F009EC0210F7
:105B8000DFF800F0A5C00210DFF800F0D9D5021050
:105B9000DFF800F021EB0210DFF800F049E6021018
:105BA000DFF800F0C52102107FB50FF2300393E853
:105BB00070000A46694681E8700000215DF82140C6
:105BC000A04203D0491C0C29F8D37FBDDFF8743BF9
:105BD000C1B2D86A02F05DFB7FBD0000000000008A
:105BE0000B000000160000007FB50129DFF8583BCC
:105BF000DFED9A2A6A4605D003D3032900F0A4807A
:105C000066D37FBD0A258DF80050FDEEC01A11EE57
:105C1000901A0C25F8EEE11A957230EE610A20EE2A
:105C2000220A0D04196083ED030A2D0E9170557040
:105C3000BDEEC00A10EE101A0D042D0ED5701171B4
:105C4000FDEEE01A11EE904A2104090E91715C609C
:105C5000D471F8EEE11A70EEE10AFDEEC11A11EE10
:105C6000900A98601073F8EEE11A31EE611A60EE56
:105C7000A20ABDEEE00A10EE101A0C04240E1472F3
:105C8000517221EE221A0104090ED172BDEEC10A31
:105C900010EE100A907300F06AF851730B26D0785A
:105CA000117B9876C3ED040A83ED051A567100F056
:105CB00065F8D07A83F8200003F121000170517B50
:105CC0004170917B81700520142102F0B5FB7FBDEE
:105CD000BDEEE10A10EE100A0A24B8EEC00A8DF8F3
:105CE000004031EEC00A20EE220A0404186083ED61
:105CF000030A240E90705470BDEEC00A10EE100A14
:105D00000404240ED4701071FDEEC20A10EE901A35
:105D10000804000E90715960D171F8EEE00A72EE3D
:105D2000600A60EEA20ABDEEE00A10EE100A5072A0
:105D300000F01DF811720B25D0789876C3ED040A97
:105D4000557100F01BF80AE00104090E8DF80010EF
:105D500050700D210DF1020002F054FC6A4614212E
:105D6000052002F069FB0A20FFF762FE7FBD0104F7
:105D700050781876090E9078587670471079D87652
:105D800090791877D0795877107A9877507AD877B1
:105D9000704780B5052002F066FDBDE80240012095
:105DA000FFF7CFBE042002F05EBD10B502F062FC2A
:105DB0000021052002F0E3FC0021042002F0DFFCBA
:105DC000DFF8344C2146002002F0D9FCDFF82C1C0F
:105DD000002002F0BDFC002002F018FC214601204A
:105DE00002F0CDFCDFF85C1C012002F0B1FCBDE844
:105DF0001040012002F00ABCDFF84C0CC06A0022FF
:105E000003E0DFF84009C06A01220F2102F041BA25
:105E1000DFF8340CC06A012203E0DFF82809C06A09
:105E20000022152102F035BA00B58FB008233C22BC
:105E300000216846FFF7A0FEDFF8100C00F15001CA
:105E400007914FF4806201210892069100236A466F
:105E50000FF24D21FFF798FE0FB000BD00007A440D
:105E60003EB5DFF8E44B04F1340104F10E0002F01A
:105E7000DAFF04F1780003F00BFBA063002104F1CA
:105E80004C0001900091002341F288320FF67931E5
:105E9000DFF8BC5B04F1840003F0CAFA04F1CC0023
:105EA000009015230022DFF8AC1B00F09AFF0223BC
:105EB0000022DFF8A41B00F051FC01208DF8070040
:105EC000012100208DF805008DF806100DF1070066
:105ED0008DF80410009001234FF4806200F0DBF88D
:105EE0000DF106000090012340F2024200F0D3F8C9
:105EF0000DF105000090012340F2034200F0CBF8C1
:105F000001A80090012340F2064200F0C4F84FF0CF
:105F1000FF32DFF8481B00F02AFC4FF0FF32DFF8B9
:105F2000401B00F024FC03F017FB4FF0FF3002F0A1
:105F30004FFA01208DF8030003200FF658328DF838
:105F400001000221D2E900358DF8021001A80421D8
:105F5000C0E900358DF800100DF103020121002089
:105F600002F06AFA0DF102020121012002F064FA46
:105F70000DF101020121022002F05EFA00F018FA90
:105F800001AA0521042002F057FA04F5887002F0F6
:105F90004CFA04F58472DFF8CC1A00F0E8FB00F04C
:105FA00076F80246DFF8C41A00F0E1FB00F06FF863
:105FB0000246DFF8BC1A00F0DAFB40F64803FB2289
:105FC000DFF8B01ADFF8B05A00F0C8FBDFF8AC1AFF
:105FD00000F0C0FB4FF6FD7001F051F800F057F8EB
:105FE000002102220191009203460422DFF8901A58
:105FF00000F0F7FEC021284603F0B4FB0020182172
:106000004FF6FF72C3B24B43401CEA52C3B2082B97
:10601000F8DB00214FF0FF3003F0A8FB20634FF0C6
:10602000FF32DFF8605A0FF67420286000F02BF87A
:10603000206BDFF8543A0522294603F0DDFBDFF838
:106040004C0A0FF66C230178206B002203F0C2FB90
:1060500004F15C0104F1500001F066FFE0620C22E3
:10606000DFF82C1A00F083FBFFF79FFEE06A0122A5
:106070000F2102F00EF901F007FD03F0ACFD2A201C
:1060800003F07AFD37BD0021284603F00EBCA17B4A
:10609000502003F018B92946102003F02DB9000054
:1060A0003EB5FFF7DDFEDFF8A059686B4FF0FF3318
:1060B0004FF040420021FFF763FD0400F5D00020BF
:1060C000019001AA69460DF1020002F0E3FEC8B991
:1060D000BDF802100120102902BF9DF80020A97B05
:1060E0008A4208D101990A884FF6FF739A421CBF71
:1060F000084600F019F8019900291EBF002808463B
:1061000002F0B3FE6000D0D5A86BFFF741FD002878
:10611000CBD1A86B03F0DDF90400F5D000F07EF8D8
:10612000204602F038FFEFE738B5DFF860190C7849
:106130000546DFF810062A78006B611C912A1CD0F6
:10614000B02A05D0D02A66D1284600F036F962E0A0
:106150002A797E2A03D12A7A0FF66C1304E07F2A6B
:1061600005D12A890FF67013009200F010FC2979EE
:1061700005F10800FFF7FCFC4DE06A780E2A06D016
:106180000F2A0DD0102A06D03E2A20D043E0284600
:1061900001F008F83FE00021082003F0B9FD3AE0E3
:1061A000AA8842F23204A24235D1AA781A2A04D12E
:1061B0000FF6341300F0D5FA06E00092C9B20FF6DC
:1061C0005813002203F006FB2946204621E0AB7855
:1061D0000C2B20D1EA7822B10FF65C1300F0C1FA43
:1061E00015E0E979012908BF6FA109D0022908BF8C
:1061F0006EA105D003290CBF0FF650110FF65411F4
:106200000091A41C0FF66413E1B203F0E3FA2946EF
:106210000C2001F0B1F8012032BD00007CB504462D
:10622000DFF820052178006B491E08290AD8DFE82D
:1062300001F0050A2049778E96999F0061680878D9
:1062400000F0BCFAAAE061680878020707D50D20C3
:1062500001F0F7FF002801D103F037FB9EE0C006F4
:10626000FCD50E2001F0EDFF002801D103F049FB21
:1062700094E06568DFF8141809782A68091D012A76
:1062800011D0022A09D0102A14D16A6853880193C8
:1062900012780FF6EC0300920AE06A681378009314
:1062A0000FF6001304E06A68137800930FF60813E2
:1062B00000F06DFB2868B0F1004F6FD0686802F005
:1062C0006AFE6BE06368DFF8C4171A7909781B78F7
:1062D000C91C032B62D8DFE803F01C120A0212B9B2
:1062E0000FF6E80318E000920FF6F4030EE012B97F
:1062F0000FF6041310E000920FF6101306E012B927
:106300000FF6201308E000920FF6281300F03FFB71
:1063100044E00FF634130022C9B203F05BFA3DE00B
:106320006168DFF8986C8D1DE97841B1DFF85C1782
:106330000FF6241309780096C91C00F028FB00967C
:1063400000232A88DFF80C1D00F04BFD26E069468B
:10635000022002F0BFF808BB00F02AF81EE000F0AF
:1063600028FB1BE06068B0F8010000F0D3FE73BDAD
:106370006568688800F070FE082804DB00F034FDD2
:1063800000F036FDFCE700F002FF1044C27D012A58
:1063900004D16A88DFF8741D00F0E9F9606808B17B
:1063A00002F0F9FD73BD0000314D0000324D0000D8
:1063B0006A460121032002F03FB82DE9F04F93B067
:1063C0000546DFF88073DFF8189DDFF8181DDFF849
:1063D000B4860FF6940ADFF8B46607F184000190E2
:1063E000A87860B1052800F0D480062800F0068166
:1063F000072800F06D81112800F0488194E1687849
:10640000002840F09981A979DFF8044D8DF80C102F
:1064100003A8E979417003AA297A817000210171EA
:10642000C170E97AC171A97A81710821687A8DF801
:106430001100002003F09EF83178386B0FF6380316
:10644000491C00F08EF90CA80FF638011C2203F04D
:106450002DFD07F1100000900CAB0FF6A1122146A4
:10646000FFF71AFEC0B220B100F0BEFC00F0C0FC85
:10647000FCE70B200090DFF820AD3A7C0197002369
:1064800000F0AEFCC0B220B100F0AEFC00F0B0FCF9
:10649000FCE707F1E4001B21029001900091012329
:1064A0003A7C00F09DFCC0B220B100F09DFC00F0F1
:1064B0009FFCFCE7DFF8E4BC3A7C922300F04DF946
:1064C00000F058F9C0B220B100F08EFC00F090FC52
:1064D000FCE705A80FF2C8711C2203F0E7FC07F1E6
:1064E0001100009005AB0FF615122146FFF7D4FD01
:1064F000C0B220B100F078FC00F07AFCFCE70B2081
:1065000000900197002300F06AFCC0B220B100F0B7
:106510006BFC00F06DFCFCE71B21029801900091E0
:10652000012300F05CFCC0B220B100F05DFC00F083
:106530005FFCFCE792237A7C00F00FF900F022F96F
:10654000C0B220B100F050FC00F052FCFCE7A81DE6
:1065500002F0CCFF01907AA0009000223178386BD5
:106560000FF25873891D00F04BFA00F022FA07F180
:106570004D00012101900091002340F6B8320FF246
:10658000894107F1A80002F053FF002200F0DEF875
:10659000D2E000F0DFF8C4B200F0F4F96878A0B9F6
:1065A000688900F01EFD281D02F0A0FF0090002267
:1065B0003178386B0FF2107300F0F7F902220121E5
:1065C00000F0C5F8019802F058FF082C0BDAF87BB0
:1065D00048B90021009100233A7C494600F001FCB3
:1065E00000F0D0F8A8E0DFF8B84B7A7C214600F044
:1065F000BEF83A7C214600F0BAF89DE000F0AAF817
:1066000031780FF2D463C4B2491C386B00F0A9F89A
:1066100000F0B8F9B5F804A0504600F01DFD0828B8
:1066200025D0182148430090DFF84CB400990BF1B5
:106630000800455895B1284602F021FF10B12846C0
:1066400002F024FF2846FFF7A7FA284602F0A3FC31
:1066500000990BF10400405802F09DFC504600F0F8
:1066600043FD504600F04FFE504600F008FD2CB9A7
:10667000019802F00BFF012200F068F800F07AF8B0
:1066800000F080F831780022C91C51E0A888ADF8EC
:106690000000A97B8DF80A10688978B9E988ADF8FF
:1066A000021001212889ADF804006889ADF80600C0
:1066B000A889ADF808008DF80B1002E000208DF8D5
:1066C0000B006A46DFF8AC1C102002F015FE33E028
:1066D000AA88DFF82C1D02AB102002F00DFEE8782E
:1066E00000280DF10A0005D102F000FF00900FF222
:1066F000006306E002F0FAFE01900FF20C63A87846
:10670000009000223178386B891C00F079F907F18C
:106710003C0003F019FC04000ED0208900F0FAFCC4
:10672000204602F038FC07E031788A1CD2B2491CBE
:10673000386BC9B203F046F813B0BDE8F08F000023
:1067400049440000E42000205C4A00200221404629
:1067500003F0ABB8102002F0CFBD5946102002F074
:10676000CBBD0022C9B203F035B8227C39461020D7
:1067700002F0C2BD0020009000233A7C4946102060
:1067800002F0BABD0020009000237A7C4946102018
:1067900002F0B2BD38B50546012002F0FBFB040053
:1067A0000AD025702146012000F083FB20B120464D
:1067B000BDE8324002F0EFBB31BD00003EB5A24C57
:1067C000B24D18B1022800F0C28037BD01A901F016
:1067D00081FE9DF80410206B0FF2505300910022AF
:1067E000297800F0E2F8606C9DF8041004F10C02C6
:1067F0001154DFF8C41C9DF804200B1883F82620E0
:106800008862401C6064607B0028DED0257B9DF898
:106810000430102D06D0202D22D0502D12D0602D06
:106820006CD090E0012802D0022814D005E08B84BF
:10683000032141F2010000F099F80020A08100201E
:10684000A0816064607BA0F11102052A00F00F01B5
:1068500049D2216237BD8B84032141F20200EAE76D
:10686000421E052AEBD8DFE802F0040F18222B3570
:10687000E5E78B84032142F2010000F077F800F095
:106880008FF8FFF791F9DDE78B84032142F20200D4
:1068900000F06CF800F07FF8F3E78B84032142F2FC
:1068A000030000F063F800F07BF80B20E9E78B842D
:1068B000032142F2040000F059F800F06CF8F4E70C
:1068C0008B84032142F2050000F050F800F068F8D4
:1068D0001620D6E78B84032142F2060000F046F82A
:1068E00000F059F8F4E7A0F12102052A01D2616213
:1068F00037BD3138052826D2A16237BD012822D103
:1069000001210020FFF750F901210B20FFF74CF97E
:10691000206A4EF660256843FFF78AF800210B20B5
:10692000FFF742F901211620FFF73EF9606A68433C
:10693000FFF77EF800211620FFF736F9A06A6843BA
:10694000FFF776F837BD0020A081606437BD01A94C
:1069500001F0C0FD9DF8040029780FF69C330090EB
:10696000491C206B00F013F837BD00009FED3E2A54
:10697000DFED3D1A9FED3C1ADFED3B0A9FED3A0A31
:10698000FFF732B9009453463178386B891C0022E6
:10699000C9B202F01FBF0020A081606400217047CF
:1069A0000020A081606401217047491CC9B202F037
:1069B00011BF7CB50020FFF7F3F8234D05F5807675
:1069C00004460622314603F027FBA0B1204602F020
:1069D0008DFD009000222D480FF628330178286B9A
:1069E000C91D00F00DF82146304602B0BDE87040E8
:1069F000062203F04BBA73BD00000301935D000053
:106A0000C9B202F0E7BE000080B501780E4A06293F
:106A100006D102F1840002F030FD002106200CE0D6
:106A2000072906D102F1A80002F027FD0021072066
:106A300003E0082904D101460820BDE8044038E2FB
:106A400001BD0000A55D0000E4200020D02700204B
:106A500049620100756B0100111C0210D96B010025
:106A6000253401004964010000000000D96C0210C7
:106A70002D6D02100D52021094490020397F011033
:106A8000D9690100F821002005740000884A00201F
:106A90008D150210010203040500000053696D709A
:106AA0006C65205065726970686572616C000000E9
